:0C0000001BC0FECFFDCFFCCFFBCFFACF22
:10000C00F9CFF8CFF7CFF6CFF5CFF4CFF3CFF2CFC0
:10001C00F1CFF0CFEFCFEECFEDCF1027E803640098
:10002C000A0001000010000110000100F894EE27F6
:10003C00ECBBF1E0FBBFEBBFE5BFF8E1F1BDE1BD0F
:10004C008DE0A2E0BB27ED938A95E9F780E094E080
:10005C00A0E6ED930197E9F7EFE5EDBFE4E0EEBF25
:10006C00C0E6D1E000C0E0E0E8BBE7BBE5BBE4BB29
:10007C00E2BBE1BBE3BFE2BFEFBDEEBDEDBDECBD4E
:10008C00E7BDE6BDEBBDEABDE9BDE8BDE2BDE5BD42
:10009C00E4BDE3BDE5BFE9BFEBB9E8E0EAB9E6E8EA
:1000AC00E0BDE0E0E0BDE7E6E9B9E0E8E8B9E0E0B2
:1000BC00E0BFECEDF5E018D0E1E019D0E2E017D0AC
:1000CC00E3E015D0E4E013D0E5E011D0E6E00FD08A
:1000DC00E7E00DD0E8E00BD0EFCFFFCF5D9BFECF7C
:1000EC00E881ECB921960895FA93EA9305C0EA9356
:1000FC00F5DFEAE0F0E0F8CFE991F991309639F0CC
:10010C0080EA9FE00197F1F7A8953197C9F7089518
:00000001FF
