:080000001BC0FECFFDCFFCCFB9
:10000800FBCFFACFF9CFF8CFF7CF2FC0F5CFF4CF8A
:10001800F3CFF2CFF1CFF0CFEFCFEECFEDCF102768
:10002800E80364000A00010000100001100001004C
:10003800F894EE27ECBBF1E0FBBFEBBFE5BFF8E1BE
:10004800F1BDE1BD8DE0A2E0BB27ED938A95E9F70C
:1000580080E094E0A0E6ED930197E9F7EFE5EDBFC6
:10006800E4E0EEBFC0E6D1E091C0EA93F894EEEF89
:10007800E2BFE9911895B99AB198BED0B19ABCD0AF
:10008800B298BED0B29BFECF7894BED0A0E0B29911
:10009800A1E0A13011F4BDD009F001C0F7CF68C0CC
:1000A800BB9AB398A9D0B39AA7D09898A9D0989B8F
:1000B800FECF7894A9D0A0E09899A1E0A13011F4DE
:1000C800A8D009F001C0F7CF53C0A19A999894D04D
:1000D800999A92D09A98A0D09A9BFECF789494D06F
:1000E800A0E09A99A1E0A13011F493D009F001C0E1
:1000F800F7CF3EC0A39A9B987FD09B9A7DD09C98BF
:100108008BD09C9BFECF78947FD0A0E09C99A1E0F7
:10011800A13011F47ED009F001C0F7CF29C0A59A0B
:100128009D986AD09D9A68D0829876D0829BFECF9F
:1001380078946AD0A0E08299A1E0A13011F469D046
:1001480009F001C0F7CF14C08B9A839855D0839AD1
:1001580053D0849865D0849BFECF789455D0A0E086
:100168008499A1E0A13011F454D009F001C0F7CF6F
:10017800E0E0E3BF32B644243A9238D0E8E0F0E059
:10018800FA93EA9351D0E0E0E2BF089539D044D021
:1001980047D0E0E0E3BFE2BFEFBDEEBDEDBDECBD93
:1001A800E7BDE6BDEBBDEABDE9BDE8BDE2BDE5BD25
:1001B800E4BDE3BDE5BFE9BFEBB9E8E0EAB9E6E8CD
:1001C800E0BDE0E0E0BDE9E1E9B9E0E8E8B9E0E098
:1001D800E0BFECEDF5E0FA93EA9326D04CDF60DF60
:1001E80074DF88DF9CDFB0DFF9CFFFCF5D9BFECFE8
:1001F800E881ECB9219608958DE08A95F1F7089584
:10020800E0E0E8BBE7BB0895E3B7F0E0E460E3BFF4
:100218000895E3B7E4300895E0E0E5BBE4BB089552
:10022800E0E0E2BBE1BB0895E991F991309639F03D
:1002380088EE93E00197F1F7A8953197C9F70895EB
:00000001FF
