:0E0000000C947E000C9400000C9400000C94F4
:10000E0000000C9400000C9400000C9400000C9462
:10001E0000000C9400000C9400000C9400000C9452
:10002E0000000C9400000C9400000C9400000C9442
:10003E0000000C9400000C9400000C9400000C9432
:10004E0000000C9400000C9400000C9400000C9422
:10005E0000000C9400000C9400000C9400000C9412
:10006E0000000C9400000C9400000C9400000C9402
:10007E0000000C9400000C9400000C9400000C94F2
:10008E0000000C9400000C9400000C9400000C94E2
:10009E0000000C9400000C9400000C9400000C94D2
:1000AE0000000C9400000C9400000C9400000C94C2
:1000BE0000000C9400000C9400000C9400000C94B2
:1000CE0000000C9400000C9400000C9400000C94A2
:1000DE0000000C94000055736572206368617220F5
:1000EE00303A000080C00200000AF2000000F894CE
:1000FE00EE27EFBBF1E0F5BFE5BFE0937400E093B0
:10010E007500F8E1A895A4B7A77FA4BFF09360008F
:10011E00E09360008DE0A2E0BB27ED938A95E9F7AE
:10012E0080E090E2A0E0B2E0ED930197E9F7E4EF12
:10013E00F0E085919591009761F0A591B5910590AC
:10014E001590BF01F00105900D920197E1F7FB01AB
:10015E00F0CF8CBFE0E0EEBBEFEFEDBFE1E2EEBF24
:10016E00C0E0DAE00C94BB00E0E8E0936100E0E070
:10017E00E0936100E2B9E1B9E5B9E4B9E8B9E7B9EC
:10018E00EBB9EAB9EEB9EDB9E1BBE0BBE4BBE3BB59
:10019E00E0930201E0930101E0930501E093040175
:1001AE00E0930801E0930701E0930B01E0930A014D
:1001BE00E4BDE5BDE6BDE7BDE8BDE0938000E0939C
:1001CE008100E0938500E0938400E0938700E09344
:1001DE008600E0938900E0938800E0938B00E09323
:1001EE008A00E0938D00E0938C00E093B600E093DC
:1001FE00B000E093B100E093B200E093B300E0935F
:10020E00B400E0939000E0939100E0939500E093AA
:10021E009400E0939700E0939600E0939900E093AA
:10022E009800E0939B00E0939A00E0939D00E0938A
:10023E009C00E093A000E093A100E093A500E09362
:10024E00A400E093A700E093A600E093A900E0933A
:10025E00A800E093AB00E093AA00E093AD00E0931A
:10026E00AC00E0932001E0932101E0932501E0939F
:10027E002401E0932701E0932601E0932901E09306
:10028E002801E0932B01E0932A01E0932D01E093E6
:10029E002C01E0936900E0936A00EDBBE0936B00E4
:1002AE00E0936C00E0936D00E0936800E0936E00C5
:1002BE00E0936F00E0937000E0937100E0937200A2
:1002CE00E0937300E0E8E0BFE0E0E0937B00E4E160
:1002DE00EA930E942202E0E0EA93EA930E94BE01B2
:1002EE00E4EEF0E0FA93EA930E940102F4CFFFCF1E
:1002FE00FFE0FA95F1F70895A7B1AF70A7B9419A4B
:10030E004098F6DF429AF4DFA6B14298F1DF429AA6
:10031E00EFDF4298A7FDF5CF0895A07FAB2BA8B9CC
:10032E00429A0E947F0142980E947F01089541984F
:10033E00A7B1A76FA7B9B8B1BF70A881EEDFA8812A
:10034E00A295EBDF419A0C945002429A0E947F01D3
:10035E00E6B142980E947F01E07F08950E947F01DE
:10036E00F4DFAE2FF2DF4198E295EA2B08950E945A
:10037E0083010E945202E050F64FE081F0E0DF016F
:10038E00E981F0E0EA0FFB1FEA930E949E0149808B
:10039E003880229608950E948301E2E0EA930E943B
:1003AE009E010E948301ECE0EA930E949E010E944E
:1003BE008301E1E0EA930E949E01E0E03E2E4E2E84
:1003CE000895EF93FF93A8816894AA3021F0E894E2
:1003DE004394641430F43394E0E0EA933A92C7DF26
:1003EE002EF08ADF409AA881AA93A1DFFF91EF91A8
:1003FE000C9450021A93E981FA813196E983FA83BB
:10040E003197E4911E2FE03019F01A93DADFF3CF13
:10041E00188123960895AA27BB271197F1F70895FF
:10042E004198A7B1A76FA7B9B8B1BF70A8810E94B4
:10043E009401419A2EC04298409868802CD0E05882
:10044E00FF4FE093020A27D0E054FF4FE093030AD8
:10045E0025D024D023D0DFDFE0E2EA93E1DFDBDF3B
:10046E00E8E221D0E4E01FD0E5E81DD0A7B1AF70DF
:10047E00A7B9419A0E94B501E53011F0E0E009C03C
:10048E000E948301E6E0EA930E949E010E94D2013F
:10049E00E1E021960895E881F0E008950E941202AD
:1004AE00E0E3EA93BDCFEA930E949E010C94120200
:00000001FF
