:020000000C945E
:1000020081000C9400000C9400000C9400000C94ED
:1000120000000C9400000C9400000C9400000C945E
:1000220000000C9400000C9400000C9400000C944E
:1000320000000C9400000C9400000C9400000C943E
:1000420000000C9400000C9400000C9400000C942E
:1000520000000C9400000C9400000C9400000C941E
:1000620000000C9400000C9400000C9400000C940E
:1000720000000C9400000C9400000C9400000C94FE
:1000820000000C9400000C9400000C9400000C94EE
:1000920000000C9400000C9400000C9400000C94DE
:1000A20000000C9400000C9400000C9400000C94CE
:1000B20000000C9400000C9400000C9400000C94BE
:1000C20000000C9400000C9400000C9400000C94AE
:1000D20000000C9400000C9400000C9400000C949E
:1000E200000054657374204C434400436F62612DD9
:1000F200636F6261000080C00200000AF800000025
:10010200F894EE27EFBBF1E0F5BFE5BFE093740092
:10011200E0937500F8E1A895A4B7A77FA4BFF09378
:100122006000E09360008DE0A2E0BB27ED938A952A
:10013200E9F780E090E2A0E0B2E0ED930197E9F701
:10014200EAEFF0E085919591009761F0A591B59164
:1001520005901590BF01F00105900D920197E1F70E
:10016200FB01F0CFE0E0EEBBEFEFEDBFE1E2EEBF6F
:10017200C0E0DAE00C94BD00E0E8E0936100E0E06A
:10018200E0936100E2B9E1B9E5B9E4B9E8B9E7B9E8
:10019200EBB9EAB9EEB9EDB9E1BBE0BBE4BBE3BB55
:1001A200E0930201E0930101E0930501E093040171
:1001B200E0930801E0930701E0930B01E0930A0149
:1001C200E4BDE5BDE6BDE7BDE8BDE0938000E09398
:1001D2008100E0938500E0938400E0938700E09340
:1001E2008600E0938900E0938800E0938B00E0931F
:1001F2008A00E0938D00E0938C00E093B600E093D8
:10020200B000E093B100E093B200E093B300E0935A
:10021200B400E0939000E0939100E0939500E093A6
:100222009400E0939700E0939600E0939900E093A6
:100232009800E0939B00E0939A00E0939D00E09386
:100242009C00E093A000E093A100E093A500E0935E
:10025200A400E093A700E093A600E093A900E09336
:10026200A800E093AB00E093AA00E093AD00E09316
:10027200AC00E0932001E0932101E0932501E0939B
:100282002401E0932701E0932601E0932901E09302
:100292002801E0932B01E0932A01E0932D01E093E2
:1002A2002C01E0936900E0936A00EDBBE0936B00E0
:1002B200E0936C00E0936D00E0936800E0936E00C1
:1002C200E0936F00E0937000E0937100E09372009E
:1002D200E0937300E0E8E0BFE0E0E0937B00E0E160
:1002E200EA930E9435020E9465020E946502E4EED2
:1002F200F0E0FA93EA930E941402E0E0EA93E1E06C
:10030200EA930E94D101EDEEF0E0FA93EA930E94A3
:1003120014020E946A020E94E5010E946A02E3CF6F
:10032200FFCFFFE0FA95F1F70895A7B1AF70A7B933
:10033200419A4098F6DF429AF4DFA6B14298F1DF83
:10034200429AEFDF4298A7FDF5CF0895A07FAB2B2D
:10035200A8B9429A0E94920142980E94920108957D
:100362004198A7B1A76FA7B9B8B1BF70A881EEDF56
:10037200A881A295EBDF419A0C946302429A0E94F3
:100382009201E6B142980E949201E07F08950E9494
:100392009201F4DFAE2FF2DF4198E295EA2B089545
:1003A2000E9496010E947002E050F64FE081F0E058
:1003B200DF01E981F0E0EA0FFB1FEA930E94B1013D
:1003C20049803880229608950E949601E2E0EA93DD
:1003D2000E94B1010E949601ECE0EA930E94B101F1
:1003E2000E949601E1E0EA930E94B101E0E03E2E14
:1003F2004E2E0895EF93FF93A8816894AA3021F0BE
:10040200E8944394641430F43394E0E0EA933A922B
:10041200C7DF2EF08ADF409AA881AA93A1DFFF915D
:10042200EF910C9463021A93E981FA813196E98380
:10043200FA833197E4911E2FE03019F01A93DADF34
:10044200F3CF188123960895AA27BB271197F1F7B6
:1004520008954198A7B1A76FA7B9B8B1BF70A88195
:100462000E94A701419A2EC042984098688037D0D6
:10047200E058FF4FE093020A32D0E054FF4FE0937E
:10048200030A30D02FD02ED0DFDFE0E2EA93E1DFA3
:10049200DBDFE8E22CD0E4E02AD0E5E828D0A7B1FF
:1004A200AF70A7B9419A0E94C801E53011F0E0E0AF
:1004B20009C00E949601E6E0EA930E94B1010E94FF
:1004C200E501E1E021960895E0E0EA93EA930C94D5
:1004D200D101E4E6F0E0FA93EA930C947D02E8811C
:1004E200F0E008950E942502E0E3EA93B2CFEA9396
:1004F2000E94B1010C942502E991F991309639F0EC
:1005020080EA9FE00197F1F7A8953197C9F708951E
:00000001FF
