:0C0000000C943D000C9400000C940000D7
:10000C000C9400000C9400000C9400000C94000064
:10001C000C9400000C9400000C9400000C94000054
:10002C000C9400000C9400000C9400000C94000044
:10003C000C9400000C9463000C9400000C940000D1
:10004C000C9400000C9400000C9400000C94000024
:10005C000C9400000C9400000C9400001027E80392
:10006C0064000A0001000010000110000100F89467
:10007C00EE27EFBBF1E0F5BFE5BFF8E1A895A4B71B
:10008C00A77FA4BFF0936000E09360008DE0A2E036
:10009C00BB27ED938A95E9F780E098E0A0E0B1E00A
:1000AC00ED930197E9F7E0E0EEBBEFEFEDBFE8E091
:1000BC00EEBFC0E0D3E00C941F01EA93F894EEEF8E
:1000CC00E6BDE9911895389A30988DE08A95F1F74C
:1000DC00309A8DE08A95F1F731980E945D01319B41
:1000EC00FECF78940E946101A0E03199A1E0A1308B
:1000FC0019F4E5B5E43009F001C0F6CF8BC03A9A9B
:10010C0032988DE08A95F1F7329A8DE08A95F1F765
:10011C0033980E945D01339BFECF78940E9461015D
:10012C00A0E03399A1E0A13019F4E5B5E43009F071
:10013C0001C0F6CF6FC03C9A34988DE08A95F1F7E8
:10014C00349A8DE08A95F1F735980E945D01359BC4
:10015C00FECF78940E946101A0E03599A1E0A13016
:10016C0019F4E5B5E43009F001C0F6CF53C0529A4A
:10017C004A988DE08A95F1F74A9A8DE08A95F1F7C5
:10018C004B980E9466014B9BFECF78940E946101B4
:10019C00A0E04B99A1E0A13019F4E5B5E43009F0E9
:1001AC0001C0F6CF37C0559A4D988DE08A95F1F77E
:1001BC004D9A8DE08A95F1F74E980E9466014E9B00
:1001CC00FECF78940E946101A0E04E99A1E0A1308D
:1001DC0019F4E5B5E43009F001C0F6CF1BC0579A0D
:1001EC004F988DE08A95F1F74F9A8DE08A95F1F74B
:1001FC0018980E946601189BFECF78940E946101AA
:10020C00A0E01899A1E0A13019F4E5B5E43009F0AB
:10021C0001C0F6CFE0E0E5BD46B455244A923DD08E
:10022C00E8E0F0E0FA93EA930E946A01E0E0E6BDB0
:10023C000895E0E8E0936100E0E0E0936100E4BD44
:10024C00E5BDE6BDE7BDE8BDE1E0E0936E00E0E0B2
:10025C00E0936F00E0937000E093C000E8E0E0935F
:10026C00C100E6E0E093C200E0E0E093C500E9E104
:10027C00E093C400E0E8E0BFE0E0E0937B00ECED4D
:10028C00F5E0FA93EA930E946A011DDF38DF53DF31
:10029C006EDF89DFA4DFF9CFFFCFE091C000F0E083
:1002AC00E072D9F3E881E093C60021960895E0E06E
:1002BC00E8B9E7B90895E5B5F0E0E460E5BD089567
:1002CC00E0E0EBB9EAB90895E991F991309639F08B
:1002DC0088EE93E00197F1F7A8953197C9F7089547
:00000001FF
