:0C0000004CC0FECFFDCFFCCFDAC0FACF21
:10000C00F9CFF8CFC4C0B5C0F5CF70C0F3CFF2CFE5
:10001C00F1CFF0CFEFCFEECFEDCFECCFEBCF102772
:10002C00E80364000A000100001000011000010048
:10003C002533640031200030200030202020202087
:10004C0020202020202000312020202020202020B3
:10005C00202020004768656E5F4C61626539313144
:10006C002020202000454C454B54524F20554248EF
:10007C0041524120200080C001002D4E414E000015
:10008C0002002A0182000100310184000000F89472
:10009C00EE27ECBBF1E0FBBFEBBFE5BFF8E1F1BD38
:1000AC00E1BD8DE0A2E0BB27ED938A95E9F780E0F6
:1000BC0092E0A0E6ED930197E9F7ECE8F0E085918A
:1000CC009591009761F0A591B59105901590BF01A0
:1000DC00F00105900D920197E1F7FB01F0CFEFE5F0
:1000EC00EDBFE2E0EEBFC0EED0E049C3AA93BA93F5
:1000FC00EA93FA93EFB7EA931ED91BB10CB1A12F77
:10010C001DD7ECE1F0E01CD761F5E09123011CD781
:10011C00E15EFE4F0083A0912301AF5FA09323010A
:10012C00A43019F4E0E0E0932301A0912501AF5F26
:10013C00A0932501A43029F4E0E0E0932501689414
:10014C0022F8E0911F01E0932601E0912001E09359
:10015C002701E0912101E0932801E0912201E09335
:10016C002901F3D8E991EFBFF991E991B991A991DE
:10017C001895EA93EFB7EA93E091F900EF5FE093FB
:10018C00F900E0EFE2BFE991EFBFE9911895EA932E
:10019C00FA93EFB7EA93E091FA00EF5FE093FA007D
:1001AC00E0EFFFEFFDBDECBDE991EFBFF991E991F7
:1001BC001895AA93EA93FA93EFB7EA93ECE9FDEF5B
:1001CC00E2BFE091F800EF5FE093F800A091F80037
:1001DC00A43620F0E0E0E093F80012C0E091FB00C0
:1001EC00A091F800AE1710F0969801C0969AE09185
:1001FC00FC00A091F800AE1710F0939801C0939AF0
:10020C00E991EFBFF991E991A99118959FD6E06614
:10021C00E7B985E38A95F1F7E6B196D6E064E6B9DD
:10022C00E6B192D6E071E1F3E6B18ED6E061E6B9C3
:10023C00E5B16DC61A93D6D7DAD7E0EC89D6E98149
:10024C0087D6D5D7E1EC84D685D6D0C51A93CAD734
:10025C00CED7E0ED7DD6E9817BD6C9D7E1ED78D656
:10026C0079D6C4C57FD6F2DF4E2E55247ED6EEDF6E
:10027C006E2E77247DD6EADF8E2E9924E5E07BD690
:10028C00AE2EBB24E6E077D6CE2EDD24E7E073D687
:10029C005BD6E093E000F093E100E8E06CD654D636
:1002AC00E093E200F093E300E9E065D64DD6E093ED
:1002BC00E400F093E500F301E40DF51DE80DF91DE4
:1002CC00EA0DFB1DEC0DFD1D58D65CD65ED65AD63C
:1002DC00A091E400B091E5005DD6E093E600F093C8
:1002EC00E700D301A40DB51D5BD6E093E800F093B5
:1002FC00E900D501A80DB91D53D6E093EA00F0939F
:10030C00EB003BD6AC0DBD1D4BD6E093EC00F0934F
:10031C00ED00E091E400F091E50037D63BD6E09398
:10032C00EE00F093EF00E091EA00F091EB00A09169
:10033C00E800B091E90038D637D624D6E093F00027
:10034C00F093F100089536D63BD650C533D6C498F9
:10035C00C59AE881E093FC0049C5C298C39AE9812B
:10036C00E093FB002DD642C5C29AC39AC49AC59A93
:10037C0008952CD609F04BC02ED632D6E09126012A
:10038C0034D63BD63AD63CD63DD62AD6E091270178
:10039C002CD6EED532D634D635D622D6E0912801DD
:1003AC0024D6E8E031D62CD62DD61AD6E0912901E8
:1003BC001CD6ECE029D624D625D612D6E091F9002D
:1003CC0014D61BD623D61ED60BD6E091FA000DD62A
:1003DC00CFD51CD617D604D61CD62CDF06D6E8E013
:1003EC00EA9314D639D53EDFE091F000E093F600A5
:1003FC00F2D5F6D5E091F000F091F10059D78BD7FA
:10040C0084E084D42896ECE0EA9300D625D5CF99E5
:10041C0044C0E1D5E5D5F1D5FFD5EFD5EED5F0D576
:10042C00F1D5DED5F6D5F8D5A3D5E7D5E9D5EAD5FE
:10043C00D7D598D5F1D5E8E0E7D5E2D5E3D5D0D539
:10044C0094D5EAD5ECE0E0D5DBD506D5E7D519F4A3
:10045C00D4D5DFD5E8D5CE9903C0CFD5DAD5E9D53B
:10046C00B5D519F47FD5D5D5E4D5CF9903C07AD5B8
:10047C00D0D5D9D5A0E0B699A1E0A13031F478D58A
:10048C00C8D5A3D4E6E4F0E0DAD5B69906C070D5A9
:10049C00C0D59BD4E3E5F0E0D2D50895A0E0CF9988
:1004AC00A1E0A03029F0A0E0B699A1E0A03019F4A9
:1004BC00C9D5C8D5CAD5CFD5AC3328F0A091290160
:1004CC00A73308F05DC0CF9903C0BCD5BBD5BDD553
:1004DC00C2D5A43120F4B6D5B5D53FDF50C0BED5BA
:1004EC00AA3128F0BED5E6E4EA9330DF48C0BCD58B
:1004FC0018F4BDD5EDE4BED5B7D518F0EBE4EA930E
:10050C00B9D5ACD5A63010F0B7D508F003C0B7D527
:10051C00EAE3B0D5B1D510F0B5D508F003C0AFD52E
:10052C00E5E3A8D5AFD510F0B0D508F003C0A7D53A
:10053C00E0E3A0D5AAD518F0A2D5EBE29BD58ED5D9
:10054C00A73418F08BD5A93508F004C0E5E5EA937B
:10055C009FD5FCDE0AD55ADEEA3538F006D556DED4
:10056C00E53618F478D5AC3008F009C094D59AD596
:10057C0034F468D567D5F1DE9DD5A1D5F8CF41C04F
:10058C006AD5A43120F46DD55DD5E7DE3AC066D5C9
:10059C00AA3118F066D5E6E432C066D520F4EEE157
:1005AC00EA93EFE567D560D518F04CD54BD5CBDE8B
:1005BC0055D5A63010F060D508F003C088D5E9E415
:1005CC0059D55AD510F05ED508F003C080D5E4E4B7
:1005DC0051D558D510F059D508F003C078D5EFE3B4
:1005EC0049D553D518F073D5ECE344D537D5A7349A
:1005FC0018F034D5A93508F004C069D5E7E3EA93BF
:10060C00A5DE0895B69903C01DD51CD563D523D599
:10061C00AC3320F065D5A73308F072C0E1E4EA935F
:10062C0029D5B69903C00ED50DD554D514D5A13105
:10063C0020F408D507D58ADE62C055D5AA3128F03A
:10064C00E6E4EA930ED589DE5AC0B69903C0FAD413
:10065C00F9D440D54BD520F4EBE4EA9308D573DEFE
:10066C0045D518F0EBE4EA9305D53DD5A63010F04E
:10067C0040D508F002C00CD53FD53BD510F03ED587
:10068C0008F003C0E2E3EA9337D538D510F039D53A
:10069C0008F003C0EDE2EA932FD533D510F0E7D480
:1006AC002BD521D5A93218F01ED5A93508F003C0D9
:1006BC00EFD4E5E50DC059D4A9DDEA3520F055D4C9
:1006CC00A5DDE53618F0C7D4AB3920F0BBD4E4E691
:1006DC00EA9343DE4AD49ADDEA3538F046D496DD07
:1006EC00E53618F4B8D4AC3008F009C0D4D4DAD458
:1006FC0034F4A8D4A7D42ADEDDD4E1D4F8CF3EC09C
:10070C00AAD4A13120F49ED49DD420DE37C0EBD4E2
:10071C00AA3120F0E6E4EA93EAE52EC0E7D418F417
:10072C00D6D4EEE1A7D4E2D418F08CD48BD40BDE63
:10073C00DAD4A63010F0DDD408F002C0E1E4E4D441
:10074C00D8D410F0DBD408F002C0ECE3DDD4D6D45E
:10075C0010F0D7D408F003C09BD4E0E68BD4D1D4EE
:10076C0010F0EDE2D1D4BFD4A93218F0BCD4AA3524
:10077C0008F004C08DD4EFE5EA93EFDD0895D4982A
:10078C00D59A8A9AD698D798BE98BF98BA9ABB9A97
:10079C00BC9ABD9A8B9A8F9AA39AC09AB898C19A10
:1007AC00B998C29ABA9AC39ABB9AC49ABC9AC59A77
:1007BC00BD9A939A969A8B9A8E9AEFE4E3BFE0E0F7
:1007CC00E2BFECBFE1E0EFBDEFE0EEBDE0E0EDBD80
:1007DC00ECBDE7BDE6BDEBBDEABDE9BDE8BDE2BDE4
:1007EC00E9E6E5BDE0E0E4BDE3BDE5BFE4BFE5E47B
:1007FC00E9BFE0E0EBB9E0E9EAB9E6E8E0BDE0E04A
:10080C00E0BDE7E6E9B9E0E8E8B9E0E0E0BFE0E642
:10081C00E7B9E4E8E6B9E0B797D3EF7EF070E0BF54
:10082C00E1D4E0E1EA9345D37894AB9AA2DD9298B7
:10083C00DD98E8EEF3E06BD49CDD96DDA0E0CC997E
:10084C00A1E0A03029F0A0E0B799A1E0A13009F413
:10085C0001C0F2CFCDD2D1D3D0D3B7D2E0E6F0E005
:10086C00EED3CBD3D6D3B1D2E1E7F0E0E8D3FADCC8
:10087C00E091F000E093F70067D33596E093F60033
:10088C0049D4A13548F0E7D3AB3530F0E7D3A431E8
:10089C0018F426D4AB3508F42AC03ED492983AD436
:1008AC00AE3118F4D8D3A03508F001C001C0F7CF91
:1008BC00A9DEFECFA7DEA1D3A9DCEE3120F0A9D3AF
:1008CC00A5DCEE3108F40DC00ED4AD3348F0C3D323
:1008DC00A53130F0C3D3A33318F002D4A93208F4F5
:1008EC0001C003C019D49298E5CFD8DDFECFBADC95
:1008FC0084D38CDCE53120F48CD388DCE53108F032
:10090C000CC08CD351F4E091F600A091F000B091A2
:10091C00F1001AD3AE17BF070CF401C001C0B0CF61
:10092C00E0911B01F0911C01929A1EDDE4EFF1E0C5
:10093C00EED3DD9AF5D3FBD334F4FFD3FED306DD2F
:10094C00FFD301D4F8CFECD3F2D334F4F6D3F5D3F0
:10095C0004DDF6D3F8D3F8CFDD9892985FD301F38A
:10096C009298DED3A0911B01B0911C01AF3FE0E047
:10097C00BE0724F493DDE4D3E6D3F4CF8FDD3DD36F
:10098C0045DCE03140F445D341DCE03120F4EAD2DF
:10099C003DDCEB3A08F001C001C0F0CFE5DCFECF46
:1009AC00B9D3AF31E8F7B6D3A13548F054D3AB3552
:1009BC0030F054D3A43118F493D3AB3508F402C0FF
:1009CC00ABD392984FDC25D321DCEF3120F4CAD283
:1009DC001DDCEF3108F001C001C0E5CFC5DCFECF56
:1009EC00FFCF5D9BFECFE881ECB991C2A4D4AC8162
:1009FC00BD8189D43097D1F0AA81BB8184D48F0179
:100A0C00309749F00230E0E01E0778F0F80131979A
:100A1C008F01ED93FC93AC81BD81ED91FD913196ED
:100A2C00FE93EE933197AE81A08303C0EE81EA93DF
:100A3C00D8DF88D427960895269779D410E0EA89D0
:100A4C00FB893196EA8BFB8B3197E4912E2FE030AA
:100A5C0009F459C1E12F78D2309731F4253211F4D1
:100A6C0011E001C078D34EC1E130A0E0FA07A1F447
:100A7C00253211F470D345C112E040E000E02D3274
:100A8C0011F401E03FC12B3211F44BE23BC1203297
:100A9C0011F440E237C104C0E230A0E0FA0751F48F
:100AAC0050E013E0203329F460D3E0E8F0E05FD3AA
:100ABC0029C105C0E330A0E0FA0709F023C12033B7
:100ACC0010F02A3308F014C0A52F38D2EAE0F0E079
:100ADC00EA02F0015E2F652F7727A22F2FD2E0E3D9
:100AEC00F0E01ED4EA1BFB0BDB01EA0F5E2F0AC100
:100AFC00E22F2AD2E336A0E0FA0739F43BD33DD3F8
:100B0C0039D3A481AA933DD3FCC0E337A0E0FA0704
:100B1C0029F440D341D3FDD11E2F0CC0E037A0E007
:100B2C00FA0791F437D338D3FED11E2F1ED3E8E049
:100B3C00F0E01DD31AD3E2E0F0E019D316D3EFE7BF
:100B4C00FFEF33D330E03FC0E436A0E0FA0721F0EA
:100B5C00E936A0E0FA0721F408D32AD308D304C05D
:100B6C00E537A0E0FA0729F4EAE2F0E024D315E037
:100B7C0012C0E835A0E0FA0729F4F7D2E8E0F0E07B
:100B8C00F6D205C0E837A0E0FA0709F0BAC0E4E3F2
:100B9C00F0E011D314E0E9D20BD3D2D191F0FAD218
:100BAC000DD3AB85AA2332F4EA85FB857DD3EA8786
:100BBC00FB874DE2403011F01F5F02C0D6D205D347
:100BCC0002C0E8D2FBD204D3B1F41517A0F4CDD2F5
:100BDC00E0E8F0E0B5D159F0C8D2EAD2B1D129F0B1
:100BEC00C4D2F3D2242F115001C020E301C020E263
:100BFC00B2D25150EACF312FB8D2E2E0F0E0A0D11E
:100C0C00D9F03030C1F0B1D2E8E0F0E099D139F050
:100C1C00EE81FF813196CFD23197E49105C0AE8140
:100C2C00BF81ED91AE83BF83EA93ABD2503009F014
:100C3C0051503150E6CF5CC020E3EE81FF8167D389
:100C4C00E887F987EE81FF813296B5D2E885F98580
:100C5C00AA85BB85AE17BF0750F02F5FA885B98555
:100C6C00EA85FB85EA1BFB0BEA87FB87EFCF2A3370
:100C7C0068F07BD2E8E0F0E063D121F0E22F64D1A0
:100C8C00379603C0E22F60D1B7962E2F6ED2E0E1DB
:100C9C00F0E056D119F5213320F4A885B9851197C8
:100CAC0009F40CC0531710F093D209F01BC020E2CA
:100CBC005CD2E0E8F0E044D189F020E3A02F3ED1F3
:100CCC00E0E1F0E054D251D273D23AD139F04DD2A6
:100CDC007CD24A9356D2503009F051503CD250300D
:100CEC0009F051503150A885B985129708F0A4CF5E
:100CFC006FD239F0503029F05150E0E2EA9341D2F2
:100D0C00F9CF10E09CCE1AD364960895FF92F82E7A
:100D1C00229711D3DE01C4D28D01DE011696C0D20A
:100D2C00F2D2EA83FB83DE011496BAD2ECD2FA93A8
:100D3C00EA931A930A93FE013696FA93EA93E0E04B
:100D4C00F0E0FA93EA9378DEAA81BB81E0E0EC93C1
:100D5C00F9D22496FF900895FFE0FA95F1F70895E3
:100D6C00A4B3AF70A4BBA99AA898F6DFAA9AF4DF33
:100D7C00A3B3AA98F1DFAA9AEFDFAA98A7FDF5CF43
:100D8C000895A07FAB2BA5BBAA9AE6DFAA98E4DF57
:100D9C000895A998A4B3A76FA4BBB5B3BF70A881DD
:100DAC00F0DFA881A295EDDFA99AB1C0AA9AD4DF91
:100DBC00E3B3AA98D1DFE07F0895CEDFF7DFAE2F43
:100DCC00F5DFA998E295EA2B0895CADFBFD0E65D5E
:100DDC00FE4FE081B9D0DF01E981B6D0D3D0FCD190
:100DEC00E981E0932E01E881E0932F01229608958A
:100DFC00B7DFB8D0CEDFB4DFECE0EED1B1DF09D194
:100E0C00C8DFE0E0E0932F01E0932E010895EF930B
:100E1C00FF93A8816894AA3061F0E894E0912E01C8
:100E2C00EF5FE0932E01E0913001A0912E01EA17C3
:100E3C0058F4E0912F01EF5FE0932F01DED0E091A9
:100E4C002F01EA93C2DF2EF08BDFA89AA881AA9318
:100E5C00A0DFFF91EF915BC01A93A981BA81ED914C
:100E6C00A983BA831E2FE03019F01A93D0DFF5CF87
:100E7C000EC01A93E981FA813196E983FA8331978E
:100E8C00E4911E2FE03019F01A93C1DFF3CF1881D3
:100E9C0023960895AA27BB271197F1F70895A998CF
:100EAC00A4B3A76FA4BBB5B3BF70A8816ADFA99A1E
:100EBC002EC0AA98A898E881E093300147D0E0585A
:100ECC00FF4FE0932C0142D0E054FF4FE0932D01F3
:100EDC0085D184D183D1DEDFE0E2EA93E0DFDADF93
:100EEC00C6D057DFD7DF44D054DFD4DFE5E874D168
:100EFC00D1DFA4B3AF70A4BBA99A5FDFE53011F0CA
:100F0C00E0E005C02DDFE6E067D172DFE1E021967D
:100F1C000895A991B991EE27FF276D91662311F0E1
:100F2C003196FBCF0895AA27BB27E991F99105903B
:100F3C00002011F01196FBCFFD010895B0E008954B
:100F4C00EA23FB2330970895F0E00895E881FCCF65
:100F5C00EA9381C1E0E0EA9363D11E2F57D1E12FD0
:100F6C0018810895E2E0EA930895E3E0EA93089586
:100F7C00E4E0EA930895EA9369C9A091E000B09186
:100F8C00E1000895EA0FFB1F0895A091E200B091D3
:100F9C00E3000895AE0FBF1FE8E0F0E0A1D1089583
:100FAC00E8E0F0E09DD10895EDDFA091EC00B09168
:100FBC00ED000895C29AC398E981E093FB0008956F
:100FCC00C49AC598E881E093FC000895A0E0CF99FD
:100FDC00A1E0A1300895EDEFF0E0FA93EA930895C3
:100FEC00ECE3F0E0FA93EA930895FF27662777275E
:100FFC0092D184E08BDE28960895E0E0EA93089580
:10100C00E4DEE9CF29DFE7CFEA93F7CFE1E0EA931B
:10101C00F7CFE1E0EA930895F9D8E7CFA0E0CE99B5
:10102C00A1E0A1300895D1DEE0E4F0E0FA93EA9378
:10103C0020CFCBDEE3E4F0E0FA93EA931ACFFA93F5
:10104C00EA9317CFE4E6EA93089587D9E4E6F0E053
:10105C00FA93EA9319C1A09127010895A091280150
:10106C000895EAE5EA930895F9DFA5300895E8E2DA
:10107C00EA930895EA9367C9F1DFA9300895EBE587
:10108C00EA930895EBDFAD300895E8DFA1310895C0
:10109C00E7E3EA930895E0E0F0E0E0931D01F093BC
:1010AC001E010895A0911D01B0911E01AF3FE0E01B
:1010BC00BE070895E1E0F0E0FA93EA93E5C0ADE1F4
:1010CC00B1E0ED91FD913196FE93EE930895EFE52D
:1010DC00EA9308953BD9E4E6F0E0FA93EA93D4C09E
:1010EC00A09129010895A09126010895FCDFA53057
:1010FC000895F9DFA9300895EBE5BCCFF4DFAD30EE
:10110C000895F1DFA1310895EA93E0E6B3CFFA93A5
:10111C00EA93BAC0C3D9E7CF929AE4E6F0E0F7CFEE
:10112C00E0E0F0E0E0931B01F0931C010895A09126
:10113C001B01B0911C01D2970895E0E5EA93089544
:10114C00EAE0F0E0E4CFABE1B1E0ED91FD91319656
:10115C00FE93EE9308952A93EF85F889FA93EA9318
:10116C00FE013F96FA93EA9341CCA02FE7CEEA2BEF
:10117C000E2F0895E889F98908953497E88BF98B37
:10118C000895EF85F889FA93EA93FE013F96FA9356
:10119C00EA932CCCEFDFF1CFA889B9891496B3D0A0
:1011AC00EE83FF83FA93EA930895EA230E2F0895B2
:1011BC00E4E0F0E00895EE83FF830895A889B989EF
:1011CC001496A1D0EA87FB870895EBEFFFEFEDCFE4
:1011DC00E02FBADEE1700895EA93DBCD5BDEE0E34D
:1011EC00EA935DCE959894988D9A8C9815C08C98AE
:1011FC008D98EE270000849B0895859B089504D05C
:10120C008C9A02D08D9AE1E06BE107C08C9A8D9A92
:10121C0003D08D98F9DF8C9865E36A95F1F7089502
:10122C0078E08D98F1DF859BFECFEEDF8894849972
:10123C0008948D9AF1DFEE1F7A9599F779917723BF
:10124C0011F48C9801C08C9ADFDF8D98E5DF8D9AB4
:10125C00DBDF8C98D9CFE99178E0EE0F10F48C9805
:10126C0001C08C9AD9DF8D98CFDF859BFECFCCDF68
:10127C008D9A7A9591F78C98C7DF8D98CDDFE1E048
:10128C008499EE278D9A0895E991F991309639F069
:10129C0080EA9FE00197F1F7A8953197C9F7089577
:1012AC000024AF0DB01D0895F195E195F04008951F
:1012BC006F2F660F660B762F08950024112490E192
:1012CC00AA0FBB1F001C111C0E1A1F0A18F40E0EBD
:1012DC001F1E01C0A1609A9599F7FD01D0010895D8
:1012EC0004D0EBDF0EF4E0DF0895E894F7FF02C0C2
:1012FC00DBDF6894B7FF06C0A095B095119600F897
:10130C00039400FA0895ED91FC91119708950590BE
:10131C00F491E02D08957A936A93FA93EA930895E1
:10132C001B2EBF2FF12D1A2EAE2FE12D08955A939F
:10133C004A933A932A931A930A9308955D814C81A8
:10134C003B812A8119810881089509911991089589
:00000001FF
